:0200000480007A
:100000006F00000B1300000013000000130000003D
:100010001300000013000000130000001300000094
:10002000232E11FE232C51FE232A61FE232871FE6C
:100030002326A1FE2324B1FE2322C1FE2320D1FECC
:10004000232EE1FC232CF1FC232A01FD232811FDA2
:100050002326C1FD2324D1FD2322E1FD2320F1FD30
:10006000130101FCEF00805D8320C1038322810323
:1000700003234103832301030325C1028325810256
:1000800003264102832601020327C1018327810140
:100090000328410183280101032EC100832E810022
:1000A000032F4100832F010013010104730020304E
:1000B00097210000938101C2138101AE1385018154
:1000C0009385818D6308B500232005001305450045
:1000D0006FF05FFF171500001305C53F1301C1FF47
:1000E000971500009385053F630EB5008326050034
:1000F000130545002320A100E78006000325010029
:100100006FF01FFE1301410037150000130505882D
:1001100073104530372500001305858073100530B6
:08012000EF00D0496F00000060
:1001280093078502B70603F003A7460013054500A9
:10013800232EE5FEE31AF5FE67800000930785028B
:10014800370703F083260500130545002322D7004F
:10015800E31AF5FE67800000370701F083274700A0
:1001680093D7070193F7F70FE38A07FE2320A70029
:10017800678000009386018803A68602370703F08C
:10018800938701882324C70003A6C6022324C70037
:1001980003A606032324C70083A646032324D70007
:1001A800930670102320D70083260700E3DE06FE9F
:1001B8008326870023A4D7028326870023A6D70295
:1001C8008326870023A8D7020327870023AAE702EC
:1001D800678000003306C500930705006394C700D5
:1001E800678000009385150003C7F5FF9387170004
:1001F800A38FE7FE6FF09FFE3386C5006396C500A8
:10020800130500006780000013051500938515008D
:100218000347F5FF83C7F5FFE302F7FE1305F0FF79
:10022800E362F7FE13051000678000003306C5007F
:10023800930705006394C700678000009387170041
:10024800A38FB7FE6FF01FFF93F5F500130790001B
:1002580093F7F50F6368B700938707032300F5004A
:1002680067800000938777036FF05FFF130101FF3A
:10027800232481001384050093D54500232291008F
:100288002326110093040500EFF01FFC93050400DA
:10029800032481008320C1001385140083244100B6
:1002A800130101016FF05FFA130101FF232481009C
:1002B8002322910023202101232611001384050005
:1002C800930405003389C500631E24018320C100FF
:1002D8000324810083244100032901001301010143
:1002E800678000008345040013850400130414008C
:1002F800EFF0DFF7938424006FF01FFD130101FF77
:10030800232481001384050093D585012326110039
:100318002322910093040500EFF05FF59355040143
:100328001385240093F5F50FEFF05FF493558400DF
:100338001385440093F5F50FEFF05FF39375F40F11
:10034800032481008320C1001385640083244100B5
:10035800130101016FF09FF1130101FD23229102A6
:10036800232E3101232C4101232A51012328610125
:10037800232671012326110223248102232021032D
:1003880023248101930A050093040001370B02F02E
:10039800371A008023240B0403298B0483278B043A
:1003A80013060006930500001385818133892741D0
:1003B800EFF0DFE723240B04032C8B04E7800A000B
:1003C80083278B0403A78180B3878741B38727419D
:1003D80063F4E70023A4F18003270A4E6374F7004F
:1003E8002320FA4E9384F4FFE39604FA8320C10293
:1003F8000324810283244102032901028329C101C4
:10040800032A8101832A4101032B0101832BC100A7
:10041800032C81001301010367800000130101F61A
:10042800B7150080232C8108130680041384052E39
:10043800130501009385052E232E1108232A910800
:10044800EFF05FD993058404130680041305810433
:10045800EFF05FD813068004930501001385018827
:10046800EFF05FD7B714008003A5044DEFF01FCD60
:1004780003A5044DB70703F00327850323A6E70068
:100488000327C50323A6E7000327050423A6E700DF
:100498000327450423A6E7001307701023A0E700ED
:1004A80003A70700E35E07FE03A787002324E502EE
:1004B80003A787002326E50203A787002328E50270
:1004C80083A78700232AF502EFF09FC51306800350
:1004D8009305810413850188EFF01FD2630405009A
:1004E8006F0000008320C109032481098324410986
:1004F8001301010A67800000130101F52324810A12
:10050800371400801304042E93050409130680048D
:10051800130501002326110A2322910A2320210B07
:10052800232E3109232C4109232A5109EFF09FCAB0
:10053800930584041306800413058104832A840D1B
:10054800032AC40D8329040E0329440EEFF09FC823
:10055800130680049305010013850188EFF09FC7F7
:10056800B714008003A5044DEFF05FBD03A5044D4B
:10057800B70703F00327850323A6E7000327C5036E
:1005880023A6E7000327050423A6E700032745045D
:1005980023A6E7000327850223A4E7000327C50253
:1005A80023A4E7000327050323A4E7000327450343
:1005B80023A4E70023A4570123A4470123A4370158
:1005C80023A427011307701B23A0E70003A7070034
:1005D800E35E07FE03A787002324E50203A787003D
:1005E8002326E50203A787002328E50283A78700BF
:1005F800232AF502EFF0DFB2130680029305810487
:1006080013850188EFF05FBF630405006F000000E9
:100618008320C10A0324810A8324410A0329010A89
:100628008329C109032A8109832A41091301010B7E
:100638006780000067800000130101FE232081000D
:10064800232291002324310023264100232811006E
:10065800232AA1009380F5FF232E1100171700000D
:100668001307C7E51307C700B301B740232C3100B0
:100678009307050003A2070083A2470003A387008E
:1006880083A3C70003A4070183A4470103A5870127
:1006980083A5C70103A6070283A6470223A407026E
:1006A80023A6070223A8070223AA0702B381110081
:1006B80083C10100334434003342C2003346A600EC
:1006C800334464009340F2FF9341F5FF1347F6FF6C
:1006D800B3F06000B3F1C10033461600337747002A
:1006E8009340F4FFB3F0A0003345E5001347F3FF50
:1006F8003377870033443400334585001344F4FFCF
:100708003342E20033431300334343003342C20011
:10071800B3C2D200B3C6B600B3C4740093C0F2FF2C
:1007280093C1F5FF13C7F6FFB3F07000B3F1D10022
:10073800B3C616003377570093C0F4FFB3F0B00088
:10074800B3C5E50013C7F3FF33779700B3C434008C
:10075800B3C5950093C4F4FFB3C2E200B3C313005A
:10076800B3C35300B3C2D200938106009390C10073
:1007780093D14101B3E11100B3C6360093000600DE
:100788001397C00193D04000B3E0E000B3C6160051
:10079800930006001397110193D1F100B3E1E10032
:1007A800B3C1C1001397C00093D04001B3E0E0008B
:1007B80033C61100938102009390210193D1E10087
:1007C800B3E11100B3C23200930002001397600135
:1007D80093D0A000B3E0E000B3C2120003A7C702A1
:1007E8003347570023A6E7029300020013975100EE
:1007F80093D1B101B3E1E100B3C1410013972001E6
:1008080093D0E000B3E0E00033C2110003A78702F1
:100818003347470023A4E702938103009390D10054
:1008280093D13101B3E11100B3C333009300030046
:100838001397100093D0F001B3E0E000B3C31300A6
:1008480003A747033347770023AAE702930003006F
:100858001397510193D1B100B3E1E100B3C1610035
:100868001397D00093D03001B3E0E00033C31100F8
:1008780003A707033347670023A8E702938104000F
:100888009390D10193D13100B3E11100B3C4340086
:10089800930004001397F00193D01000B3E0E00038
:1008A800B3C4140003A787023347970023A4E702C1
:1008B800930004001397310093D1D101B3E1E10013
:1008C800B3C181001397D00193D03000B3E0E000AA
:1008D80033C4110003A747033347870023AAE7025D
:1008E800938105009390B10193D15100B3E11100B8
:1008F800B3C53500930005001397700193D090009D
:10090800B3E0E000B3C5150003A707033347B700FA
:1009180023A8E702930005001397D10193D1310072
:10092800B3E1E100B3C1A1001397B00193D0500027
:10093800B3E0E00033C5110003A7C7023347A7009F
:1009480023A6E702832181018320C1019380F0FF60
:1009580063C60000232E11006FF05FD523A0470067
:1009680023A2570023A4670023A6770023A88700A3
:1009780023AA970023ACA70023AEB70023A0C70281
:1009880023A2D7020324010083244100832181008C
:100998000322C100832001011301010267800000C6
:1009A800130101FE2320810023229100232431001A
:1009B8002326410023281100232AA100232CD1003B
:1009C800130141FE9300F03F83A70500B3F1170020
:1009D800231D310093D7A700B3F11700231C310062
:1009E80093D7A700B3F11700231B310093D1A700B9
:1009F80083A745001397270093D7870033673700ED
:100A0800B3711700231A3100B3F11700231931000D
:100A180093D7A700B3F117002318310093D1A7008B
:100A280083A785001397470093D76700336737007C
:100A3800B371170023173100B3F1170023163100E3
:100A480093D7A700B3F117002315310093D1A7005E
:100A580083A7C5001397670093D74700336737000C
:100A6800B371170023143100B3F1170023133100B9
:100A780093D7A700B3F117002312310093D1A70031
:100A8800930706001397870093D72700336737002B
:100A9800B371170023113100B3F11700231031008F
:100AA8009307050003A2070083A2470003A387005A
:100AB80083A3C70003A4070183A4470103A58701F3
:100AC80083A5C70103A6070283A647029300A001D6
:100AD800232C1102B3802000839000001387870322
:100AE80093F1300093912100B381E10083A10100CB
:100AF8003342320093F1C000B381E10083A10100C9
:100B08003343330093D0200093F1C000B381E10058
:100B180083A101003344340093D0200093F1C00036
:100B2800B381E10083A101003345350093D0200053
:100B380093F1C000B381E10083A101003346360080
:100B4800832081039380E0FF63C20024232C1102D9
:100B58009301000F334434003342C2003346A600E9
:100B6800334464009340F2FF9341F5FF1347F6FFC7
:100B7800B3F06000B3F1C100334616003377470085
:100B88009340F4FFB3F0A0003345E5001347F3FFAB
:100B98003377870033443400334585001344F4FF2A
:100BA8003342E20033431300334343003342C2006D
:100BB800B3C2D200B3C6B600B3C4740093C0F2FF88
:100BC80093C1F5FF13C7F6FFB3F07000B3F1D1007E
:100BD800B3C616003377570093C0F4FFB3F0B000E4
:100BE800B3C5E50013C7F3FF33779700B3C43400E8
:100BF800B3C5950093C4F4FFB3C2E200B3C31300B6
:100C0800B3C35300B3C2D200938106009390C100CE
:100C180093D14101B3E11100B3C636009300060039
:100C28001397C00193D04000B3E0E000B3C61600AC
:100C3800930006001397110193D1F100B3E1E1008D
:100C4800B3C1C1001397C00093D04001B3E0E000E6
:100C580033C61100938102009390210193D1E100E2
:100C6800B3E11100B3C23200930002001397600190
:100C780093D0A000B3E0E000B3C2120093000200DA
:100C88001397510093D1B101B3E1E100B3C1410021
:100C98001397200193D0E000B3E0E00033C21100C5
:100CA800938103009390D10093D13101B3E11100F6
:100CB800B3C33300930003001397100093D0F001DF
:100CC800B3E0E000B3C3130093000300139751018E
:100CD80093D1B100B3E1E100B3C161001397D00033
:100CE80093D03001B3E0E00033C3110093810400D6
:100CF8009390D10193D13100B3E11100B3C4340012
:100D0800930004001397F00193D01000B3E0E000C3
:100D1800B3C41400930004001397310093D1D10198
:100D2800B3E1E100B3C181001397D00193D0300043
:100D3800B3E0E00033C41100938105009390B10142
:100D480093D15100B3E11100B3C5350093000500FC
:100D58001397700193D09000B3E0E000B3C515007D
:100D6800930005001397D10193D13100B3E1E1005D
:100D7800B3C1A1001397B00193D05000B3E0E000D5
:100D880033C51100832081036FF0DFD48321410331
:100D98009380F1FF232C1102170700001307077235
:100DA8001307C700B3013740232A31021301C101D9
:040DB8006FF0DF8E6B
:100DBC00130101F7130710002320E1009307200013
:100DCC002322F100930730002324F1002326010095
:100DDC0023280100231A010023261108232481084B
:100DEC002322910823202109232E3107232C41078C
:100DFC00232A51072328610723267107B70702F01E
:100E0C0023AA07001306F0FF23A8C70023A007049A
:100E1C0023A4070423A0070023A2C70423A0E704EC
:100E2C00B70700F01307F00F23A4E7001307000F18
:100E3C0023A2E700B70701F01307100423A0E70073
:100E4C00B70703F083A707009305200063D4070AB4
:100E5C00B707008093050000370703F093C7F7FF2F
:100E6C00130600102320B70083260700B3F6F60004
:100E7C006388B600B7070001B3E5F5006F00800783
:100E8C0093851500E390C5FE930600E02320D70060
:100E9C0083250700B3F5F500639E050413040000D9
:100EAC001309A00093090010931444001307810147
:100EBC0093070000B386F4002320D7009387170014
:100ECC0013074700E39827FF13058101EFF0CFA626
:100EDC0013058101EFF08FA4130781019307000024
:100EEC0003260700B386F4006380C62AB705000208
:100EFC00B365B4001305C100EFF00FC0130400007C
:100F0C00930480009307C100B387870003C50700D3
:100F1C0013041400EFF00FA4E31694FE1305A000C5
:100F2C00EFF04FA3EFF04FCFEFF0CFDC1305A000A5
:100F3C00EFF04FA21305F004EFF0CFA11305B004AE
:100F4C00EFF04FA11305A000EFF0CFA093043000F9
:100F5C00370900F0930BF0FF371A0080370B008035
:100F6C00930A8000832749001305CB171304000054
:100F7C009387170093F7F70F2322F90083270100BB
:100F8C0023A4718123200A4E938717002320F1009C
:100F9C00EFF04FBC83A581801305C100EFF0CFB5F6
:100FAC009307C100B387870003C50700130414001F
:100FBC00EFF04F9AE31654FF13050002EFF08F99F0
:100FCC0083250A4E1305C10013040000EFF0CFB2C5
:100FDC009307C100B387870003C5070013041400EF
:100FEC00EFF04F97E31654FF1305A0009384F4FF22
:100FFC00EFF04F96E39804F637190080B71900000C
:10100C0013090937371A0080B70401F0B71A0080AA
:10101C00938909FF130680049305090013058101C8
:10102C00EFF00F9B13068004930581011385018853
:10103C00EFF00F9A13078002370600F09305800338
:10104C0083274A4DB387E70083A6440093D68601D5
:10105C00E38C06FE83A60400130717002380D70039
:10106C00832746009387170093F7F70F2322F60088
:10107C0083270100938717002320F100E312B7FCAC
:10108C0083A7440093D78701E38C07FE370700F052
:10109C0003A404008327470003A50A4D9387170078
:1010AC0093F7F70F2322F70083270100938717008C
:1010BC002320F1009377040F639C0718EFF0CF8780
:1010CC0003A50A4DB70703F0131444000327850347
:1010DC00337434011364741023A6E7000327C5038B
:1010EC0023A6E7000327050423A6E70003274504EE
:1010FC0023A6E7000327850223A4E7000327C502E4
:10110C0023A4E7000327050323A4E70003274503D3
:10111C0023A4E7000327850223A4E7000327C502C5
:10112C0023A4E7000327050323A4E70003274503B3
:10113C0023A4E70023A0870003A70700E35E07FEB4
:10114C0003A7870013048002930B80032324E5027A
:10115C0003A787002326E50203A787002328E502BF
:10116C0083A78700232AF502EFE05FFB83274A4D14
:10117C00B387870003C5070013041400EFE09FFD3D
:10118C00E31674FF6FF01FE99387170013074700EE
:10119C00E39827D513041400E31834D11307000087
:1011AC0093050000B70703F01308400093080010E4
:1011BC00130627002320C102130637002322C10285
:1011CC0023A4E7009306170023A4D700832601026B
:1011DC001306810123A4D7008326410223A4D70040
:1011EC0083A68700232CD10083A68700232ED10051
:1011FC0083A687002320D10283A687002322D10255
:10120C0093060000032306003305D7006306650030
:10121C00B70700036FF05FC69386160013064600EF
:10122C00E39206FF9385150013070701E39215F966
:10123C0013071010B70703F023A0E700370703F0DC
:10124C0083270700E3DE07FE930500006FF09FCABB
:10125C0093060000370600F0B70703F093057010F3
:10126C0013D766001377F70F136717002322E600D6
:10127C000327850223A4E7000327C50223A4E70064
:10128C000327050323A4E7000327450323A4E70052
:10129C0023A0B70003A70700E35E07FE03A78700A0
:1012AC00938616002324E50203A787002326E50274
:1012BC0003A787002328E50203A78700232AE5025A
:0812CC00232206006FF0DFF998
:1012E00082518ED0152D17A072BB941E48A90F17DE
:1012F0004DFF6BD6A9BAE44C19A1B56DFA9B827269
:10130000C3377DD67CC71C860000000000000000AB
:101310000000000000000000A4093822299F31D0FD
:10132000082EFA98EC4E6C89344616A2DC4B29B88C
:10133000E1F75F43B138AC801673D4A1620666C290
:10134000AC3D2771A2BD4804ED998EABD71F8492A6
:10135000CDE2DEE0235345CBFA51EC2CE574357138
:10136000A4093822299F31D0082EFA98EC4E6C89B6
:10137000243F6A8885A308D313198A2E0370734407
:10138000243F6A8885A308D313198A2E03707344F7
:10139000243F6A8885A308D30000000000000000F5
:1013A0000000000000000000A4093822299F31D06D
:1013B000082EFA98EC4E6C8900010203040506071A
:1013C00001000000000000004414805ACC22CDC16E
:1013D000DA2DAAD4054FBE1F9D8B9ED15DB0DAAB2E
:1013E0002CCC5FB0F0271AF7307C0EB6527E40133B
:1013F000BEE14DB8D38458DBE8C13C2C650815A389
:101400008C6EEDCF51471305AC15795F6CDCABF9F1
:101410000F7982516CD891E6804A41D5121789879D
:10142000B507DDC263FE495EE0C2C2972E2EAB0255
:10143000A60BAD89E2DFFED1243F6A8885A308D3DD
:1014400013198A2E03707344243F6A8885A308D336
:1014500013198A2E03707344243F6A8885A308D326
:10146000A4093822299F31D0082EFA98EC4E6C89B5
:10147000243F6A8885A308D313198A2E0370734406
:10148000243F6A8885A308D313198A2E03707344F6
:10149000243F6A8885A308D3E0C2C2972E2EAB02F0
:1014A000A60BAD89E2DFFED1A4093822299F31D0F5
:1014B000082EFA98EC4E6C89000000000000000035
:1014C0004B5A69788796A5B4C3D2E1F000000000BA
:1014D0005015008050150080FFFFFFFF0000000046
:040000058000000077
:00000001FF
